{
  "contractName": "SupplyChain",
  "abi": [
    {
      "inputs": [],
      "payable": false,
      "stateMutability": "nonpayable",
      "type": "constructor"
    },
    {
      "constant": true,
      "inputs": [
        {
          "internalType": "uint256",
          "name": "",
          "type": "uint256"
        }
      ],
      "name": "Consumers",
      "outputs": [
        {
          "internalType": "uint256",
          "name": "id",
          "type": "uint256"
        },
        {
          "internalType": "string",
          "name": "name",
          "type": "string"
        },
        {
          "internalType": "string",
          "name": "phone",
          "type": "string"
        },
        {
          "internalType": "uint256",
          "name": "medicineID",
          "type": "uint256"
        },
        {
          "internalType": "address",
          "name": "retailerAddress",
          "type": "address"
        }
      ],
      "payable": false,
      "stateMutability": "view",
      "type": "function"
    },
    {
      "constant": true,
      "inputs": [
        {
          "internalType": "uint256",
          "name": "",
          "type": "uint256"
        }
      ],
      "name": "DIS",
      "outputs": [
        {
          "internalType": "address",
          "name": "addr",
          "type": "address"
        },
        {
          "internalType": "uint256",
          "name": "id",
          "type": "uint256"
        },
        {
          "internalType": "string",
          "name": "name",
          "type": "string"
        },
        {
          "internalType": "string",
          "name": "place",
          "type": "string"
        },
        {
          "internalType": "string",
          "name": "phone",
          "type": "string"
        },
        {
          "internalType": "string",
          "name": "role",
          "type": "string"
        }
      ],
      "payable": false,
      "stateMutability": "view",
      "type": "function"
    },
    {
      "constant": true,
      "inputs": [
        {
          "internalType": "uint256",
          "name": "",
          "type": "uint256"
        }
      ],
      "name": "MAN",
      "outputs": [
        {
          "internalType": "address",
          "name": "addr",
          "type": "address"
        },
        {
          "internalType": "uint256",
          "name": "id",
          "type": "uint256"
        },
        {
          "internalType": "string",
          "name": "name",
          "type": "string"
        },
        {
          "internalType": "string",
          "name": "place",
          "type": "string"
        },
        {
          "internalType": "string",
          "name": "phone",
          "type": "string"
        },
        {
          "internalType": "string",
          "name": "role",
          "type": "string"
        }
      ],
      "payable": false,
      "stateMutability": "view",
      "type": "function"
    },
    {
      "constant": true,
      "inputs": [
        {
          "internalType": "uint256",
          "name": "",
          "type": "uint256"
        }
      ],
      "name": "MedicineStock",
      "outputs": [
        {
          "internalType": "uint256",
          "name": "id",
          "type": "uint256"
        },
        {
          "internalType": "string",
          "name": "name",
          "type": "string"
        },
        {
          "internalType": "string",
          "name": "description",
          "type": "string"
        },
        {
          "internalType": "uint256",
          "name": "RMSid",
          "type": "uint256"
        },
        {
          "internalType": "uint256",
          "name": "MANid",
          "type": "uint256"
        },
        {
          "internalType": "uint256",
          "name": "DISid",
          "type": "uint256"
        },
        {
          "internalType": "uint256",
          "name": "RETid",
          "type": "uint256"
        },
        {
          "internalType": "enum SupplyChain.STAGE",
          "name": "stage",
          "type": "uint8"
        }
      ],
      "payable": false,
      "stateMutability": "view",
      "type": "function"
    },
    {
      "constant": true,
      "inputs": [],
      "name": "Owner",
      "outputs": [
        {
          "internalType": "address",
          "name": "",
          "type": "address"
        }
      ],
      "payable": false,
      "stateMutability": "view",
      "type": "function"
    },
    {
      "constant": true,
      "inputs": [
        {
          "internalType": "uint256",
          "name": "",
          "type": "uint256"
        }
      ],
      "name": "RET",
      "outputs": [
        {
          "internalType": "address",
          "name": "addr",
          "type": "address"
        },
        {
          "internalType": "uint256",
          "name": "id",
          "type": "uint256"
        },
        {
          "internalType": "string",
          "name": "name",
          "type": "string"
        },
        {
          "internalType": "string",
          "name": "place",
          "type": "string"
        },
        {
          "internalType": "string",
          "name": "phone",
          "type": "string"
        },
        {
          "internalType": "string",
          "name": "role",
          "type": "string"
        }
      ],
      "payable": false,
      "stateMutability": "view",
      "type": "function"
    },
    {
      "constant": true,
      "inputs": [
        {
          "internalType": "uint256",
          "name": "",
          "type": "uint256"
        }
      ],
      "name": "RMS",
      "outputs": [
        {
          "internalType": "address",
          "name": "addr",
          "type": "address"
        },
        {
          "internalType": "uint256",
          "name": "id",
          "type": "uint256"
        },
        {
          "internalType": "string",
          "name": "name",
          "type": "string"
        },
        {
          "internalType": "string",
          "name": "place",
          "type": "string"
        },
        {
          "internalType": "string",
          "name": "phone",
          "type": "string"
        },
        {
          "internalType": "string",
          "name": "role",
          "type": "string"
        }
      ],
      "payable": false,
      "stateMutability": "view",
      "type": "function"
    },
    {
      "constant": true,
      "inputs": [],
      "name": "consumerCtr",
      "outputs": [
        {
          "internalType": "uint256",
          "name": "",
          "type": "uint256"
        }
      ],
      "payable": false,
      "stateMutability": "view",
      "type": "function"
    },
    {
      "constant": true,
      "inputs": [],
      "name": "disCtr",
      "outputs": [
        {
          "internalType": "uint256",
          "name": "",
          "type": "uint256"
        }
      ],
      "payable": false,
      "stateMutability": "view",
      "type": "function"
    },
    {
      "constant": true,
      "inputs": [],
      "name": "manCtr",
      "outputs": [
        {
          "internalType": "uint256",
          "name": "",
          "type": "uint256"
        }
      ],
      "payable": false,
      "stateMutability": "view",
      "type": "function"
    },
    {
      "constant": true,
      "inputs": [],
      "name": "medicineCtr",
      "outputs": [
        {
          "internalType": "uint256",
          "name": "",
          "type": "uint256"
        }
      ],
      "payable": false,
      "stateMutability": "view",
      "type": "function"
    },
    {
      "constant": true,
      "inputs": [],
      "name": "retCtr",
      "outputs": [
        {
          "internalType": "uint256",
          "name": "",
          "type": "uint256"
        }
      ],
      "payable": false,
      "stateMutability": "view",
      "type": "function"
    },
    {
      "constant": true,
      "inputs": [],
      "name": "rmsCtr",
      "outputs": [
        {
          "internalType": "uint256",
          "name": "",
          "type": "uint256"
        }
      ],
      "payable": false,
      "stateMutability": "view",
      "type": "function"
    },
    {
      "constant": true,
      "inputs": [
        {
          "internalType": "uint256",
          "name": "_medicineID",
          "type": "uint256"
        }
      ],
      "name": "showStage",
      "outputs": [
        {
          "internalType": "string",
          "name": "",
          "type": "string"
        }
      ],
      "payable": false,
      "stateMutability": "view",
      "type": "function"
    },
    {
      "constant": false,
      "inputs": [
        {
          "internalType": "address",
          "name": "_address",
          "type": "address"
        },
        {
          "internalType": "string",
          "name": "_name",
          "type": "string"
        },
        {
          "internalType": "string",
          "name": "_place",
          "type": "string"
        },
        {
          "internalType": "string",
          "name": "_phone",
          "type": "string"
        },
        {
          "internalType": "string",
          "name": "_role",
          "type": "string"
        }
      ],
      "name": "addRMS",
      "outputs": [],
      "payable": false,
      "stateMutability": "nonpayable",
      "type": "function"
    },
    {
      "constant": false,
      "inputs": [
        {
          "internalType": "address",
          "name": "_address",
          "type": "address"
        },
        {
          "internalType": "string",
          "name": "_name",
          "type": "string"
        },
        {
          "internalType": "string",
          "name": "_place",
          "type": "string"
        },
        {
          "internalType": "string",
          "name": "_phone",
          "type": "string"
        },
        {
          "internalType": "string",
          "name": "_role",
          "type": "string"
        }
      ],
      "name": "addManufacturer",
      "outputs": [],
      "payable": false,
      "stateMutability": "nonpayable",
      "type": "function"
    },
    {
      "constant": false,
      "inputs": [
        {
          "internalType": "address",
          "name": "_address",
          "type": "address"
        },
        {
          "internalType": "string",
          "name": "_name",
          "type": "string"
        },
        {
          "internalType": "string",
          "name": "_place",
          "type": "string"
        },
        {
          "internalType": "string",
          "name": "_phone",
          "type": "string"
        },
        {
          "internalType": "string",
          "name": "_role",
          "type": "string"
        }
      ],
      "name": "addDistributor",
      "outputs": [],
      "payable": false,
      "stateMutability": "nonpayable",
      "type": "function"
    },
    {
      "constant": false,
      "inputs": [
        {
          "internalType": "address",
          "name": "_address",
          "type": "address"
        },
        {
          "internalType": "string",
          "name": "_name",
          "type": "string"
        },
        {
          "internalType": "string",
          "name": "_place",
          "type": "string"
        },
        {
          "internalType": "string",
          "name": "_phone",
          "type": "string"
        },
        {
          "internalType": "string",
          "name": "_role",
          "type": "string"
        }
      ],
      "name": "addRetailer",
      "outputs": [],
      "payable": false,
      "stateMutability": "nonpayable",
      "type": "function"
    },
    {
      "constant": false,
      "inputs": [
        {
          "internalType": "uint256",
          "name": "_medicineID",
          "type": "uint256"
        }
      ],
      "name": "RMSsupply",
      "outputs": [],
      "payable": false,
      "stateMutability": "nonpayable",
      "type": "function"
    },
    {
      "constant": false,
      "inputs": [
        {
          "internalType": "uint256",
          "name": "_medicineID",
          "type": "uint256"
        }
      ],
      "name": "Manufacturing",
      "outputs": [],
      "payable": false,
      "stateMutability": "nonpayable",
      "type": "function"
    },
    {
      "constant": false,
      "inputs": [
        {
          "internalType": "uint256",
          "name": "_medicineID",
          "type": "uint256"
        }
      ],
      "name": "Distribute",
      "outputs": [],
      "payable": false,
      "stateMutability": "nonpayable",
      "type": "function"
    },
    {
      "constant": false,
      "inputs": [
        {
          "internalType": "uint256",
          "name": "_medicineID",
          "type": "uint256"
        }
      ],
      "name": "Retail",
      "outputs": [],
      "payable": false,
      "stateMutability": "nonpayable",
      "type": "function"
    },
    {
      "constant": false,
      "inputs": [
        {
          "internalType": "uint256",
          "name": "_medicineID",
          "type": "uint256"
        },
        {
          "internalType": "string",
          "name": "_consumerName",
          "type": "string"
        },
        {
          "internalType": "string",
          "name": "_consumerPhone",
          "type": "string"
        }
      ],
      "name": "sold",
      "outputs": [],
      "payable": false,
      "stateMutability": "nonpayable",
      "type": "function"
    },
    {
      "constant": true,
      "inputs": [
        {
          "internalType": "uint256",
          "name": "_consumerID",
          "type": "uint256"
        }
      ],
      "name": "getConsumer",
      "outputs": [
        {
          "internalType": "string",
          "name": "consumerName",
          "type": "string"
        },
        {
          "internalType": "string",
          "name": "consumerPhone",
          "type": "string"
        },
        {
          "internalType": "uint256",
          "name": "medicineID",
          "type": "uint256"
        },
        {
          "internalType": "address",
          "name": "retailerAddress",
          "type": "address"
        }
      ],
      "payable": false,
      "stateMutability": "view",
      "type": "function"
    },
    {
      "constant": true,
      "inputs": [
        {
          "internalType": "address",
          "name": "_retailerAddress",
          "type": "address"
        }
      ],
      "name": "getConsumersByRetailer",
      "outputs": [
        {
          "internalType": "uint256[]",
          "name": "consumerIDs",
          "type": "uint256[]"
        }
      ],
      "payable": false,
      "stateMutability": "view",
      "type": "function"
    },
    {
      "constant": false,
      "inputs": [
        {
          "internalType": "string",
          "name": "_name",
          "type": "string"
        },
        {
          "internalType": "string",
          "name": "_description",
          "type": "string"
        }
      ],
      "name": "addMedicine",
      "outputs": [],
      "payable": false,
      "stateMutability": "nonpayable",
      "type": "function"
    },
    {
      "constant": true,
      "inputs": [
        {
          "internalType": "address",
          "name": "_userAddress",
          "type": "address"
        }
      ],
      "name": "findUserByAddress",
      "outputs": [
        {
          "internalType": "string",
          "name": "",
          "type": "string"
        },
        {
          "internalType": "string",
          "name": "",
          "type": "string"
        },
        {
          "internalType": "string",
          "name": "",
          "type": "string"
        },
        {
          "internalType": "string",
          "name": "",
          "type": "string"
        }
      ],
      "payable": false,
      "stateMutability": "view",
      "type": "function"
    }
  ],
  "bytecode": "0x6080604052600060015560006002556000600355600060045560006005556000600c5534801561002e57600080fd5b50336000806101000a81548173ffffffffffffffffffffffffffffffffffffffff021916908373ffffffffffffffffffffffffffffffffffffffff160217905550615803806200007f6000396000f3fe608060405234801561001057600080fd5b50600436106101a95760003560e01c806386c18275116100f9578063cc40306911610097578063dd28639811610071578063dd28639814611c1e578063e101a2e014611c3c578063eb1a06b514611ce3578063eef5cb4014611e2e576101a9565b8063cc403069146115fd578063cfa7217714611822578063daa7f64b1461197e576101a9565b8063a48d335a116100d3578063a48d335a14611413578063a7f19e4414611441578063a95f29d914611595578063b4a99a4e146115b3576101a9565b806386c1827514610ff35780638f4183cc146110215780639b5b2cf314611173576101a9565b80633d753a1c1161016657806359bf286f1161014057806359bf286f14610af25780636fcec49314610d175780636fe7b29914610d355780637e43d94d14610fd5576101a9565b80633d753a1c14610a78578063438e9c4d14610aa65780634def474a14610ac4576101a9565b806302795c27146101ae57806316d77f441461024757806317b5c36d146104e7578063217f8679146106e85780632b0187ac146108355780632bdb2e6b14610a5a575b600080fd5b6101f0600480360360208110156101c457600080fd5b81019080803573ffffffffffffffffffffffffffffffffffffffff169060200190929190505050612053565b6040518080602001828103825283818151815260200191508051906020019060200280838360005b83811015610233578082015181840152602081019050610218565b505050509050019250505060405180910390f35b6104e5600480360360a081101561025d57600080fd5b81019080803573ffffffffffffffffffffffffffffffffffffffff1690602001909291908035906020019064010000000081111561029a57600080fd5b8201836020820111156102ac57600080fd5b803590602001918460018302840111640100000000831117156102ce57600080fd5b91908080601f016020809104026020016040519081016040528093929190818152602001838380828437600081840152601f19601f8201169050808301925050505050505091929192908035906020019064010000000081111561033157600080fd5b82018360208201111561034357600080fd5b8035906020019184600183028401116401000000008311171561036557600080fd5b91908080601f016020809104026020016040519081016040528093929190818152602001838380828437600081840152601f19601f820116905080830192505050505050509192919290803590602001906401000000008111156103c857600080fd5b8201836020820111156103da57600080fd5b803590602001918460018302840111640100000000831117156103fc57600080fd5b91908080601f016020809104026020016040519081016040528093929190818152602001838380828437600081840152601f19601f8201169050808301925050505050505091929192908035906020019064010000000081111561045f57600080fd5b82018360208201111561047157600080fd5b8035906020019184600183028401116401000000008311171561049357600080fd5b91908080601f016020809104026020016040519081016040528093929190818152602001838380828437600081840152601f19601f8201169050808301925050505050505091929192905050506121d4565b005b610529600480360360208110156104fd57600080fd5b81019080803573ffffffffffffffffffffffffffffffffffffffff169060200190929190505050612368565b6040518080602001806020018060200180602001858103855289818151815260200191508051906020019080838360005b8381101561057557808201518184015260208101905061055a565b50505050905090810190601f1680156105a25780820380516001836020036101000a031916815260200191505b50858103845288818151815260200191508051906020019080838360005b838110156105db5780820151818401526020810190506105c0565b50505050905090810190601f1680156106085780820380516001836020036101000a031916815260200191505b50858103835287818151815260200191508051906020019080838360005b83811015610641578082015181840152602081019050610626565b50505050905090810190601f16801561066e5780820380516001836020036101000a031916815260200191505b50858103825286818151815260200191508051906020019080838360005b838110156106a757808201518184015260208101905061068c565b50505050905090810190601f1680156106d45780820380516001836020036101000a031916815260200191505b509850505050505050505060405180910390f35b610714600480360360208110156106fe57600080fd5b8101908080359060200190929190505050613050565b6040518080602001806020018581526020018473ffffffffffffffffffffffffffffffffffffffff1673ffffffffffffffffffffffffffffffffffffffff168152602001838103835287818151815260200191508051906020019080838360005b83811015610790578082015181840152602081019050610775565b50505050905090810190601f1680156107bd5780820380516001836020036101000a031916815260200191505b50838103825286818151815260200191508051906020019080838360005b838110156107f65780820151818401526020810190506107db565b50505050905090810190601f1680156108235780820380516001836020036101000a031916815260200191505b50965050505050505060405180910390f35b6108616004803603602081101561084b57600080fd5b8101908080359060200190929190505050613202565b604051808773ffffffffffffffffffffffffffffffffffffffff1673ffffffffffffffffffffffffffffffffffffffff16815260200186815260200180602001806020018060200180602001858103855289818151815260200191508051906020019080838360005b838110156108e55780820151818401526020810190506108ca565b50505050905090810190601f1680156109125780820380516001836020036101000a031916815260200191505b50858103845288818151815260200191508051906020019080838360005b8381101561094b578082015181840152602081019050610930565b50505050905090810190601f1680156109785780820380516001836020036101000a031916815260200191505b50858103835287818151815260200191508051906020019080838360005b838110156109b1578082015181840152602081019050610996565b50505050905090810190601f1680156109de5780820380516001836020036101000a031916815260200191505b50858103825286818151815260200191508051906020019080838360005b83811015610a175780820151818401526020810190506109fc565b50505050905090810190601f168015610a445780820380516001836020036101000a031916815260200191505b509a505050505050505050505060405180910390f35b610a626134be565b6040518082815260200191505060405180910390f35b610aa460048036036020811015610a8e57600080fd5b81019080803590602001909291905050506134c4565b005b610aae613596565b6040518082815260200191505060405180910390f35b610af060048036036020811015610ada57600080fd5b810190808035906020019092919050505061359c565b005b610b1e60048036036020811015610b0857600080fd5b810190808035906020019092919050505061366e565b604051808773ffffffffffffffffffffffffffffffffffffffff1673ffffffffffffffffffffffffffffffffffffffff16815260200186815260200180602001806020018060200180602001858103855289818151815260200191508051906020019080838360005b83811015610ba2578082015181840152602081019050610b87565b50505050905090810190601f168015610bcf5780820380516001836020036101000a031916815260200191505b50858103845288818151815260200191508051906020019080838360005b83811015610c08578082015181840152602081019050610bed565b50505050905090810190601f168015610c355780820380516001836020036101000a031916815260200191505b50858103835287818151815260200191508051906020019080838360005b83811015610c6e578082015181840152602081019050610c53565b50505050905090810190601f168015610c9b5780820380516001836020036101000a031916815260200191505b50858103825286818151815260200191508051906020019080838360005b83811015610cd4578082015181840152602081019050610cb9565b50505050905090810190601f168015610d015780820380516001836020036101000a031916815260200191505b509a505050505050505050505060405180910390f35b610d1f61392a565b6040518082815260200191505060405180910390f35b610fd3600480360360a0811015610d4b57600080fd5b81019080803573ffffffffffffffffffffffffffffffffffffffff16906020019092919080359060200190640100000000811115610d8857600080fd5b820183602082011115610d9a57600080fd5b80359060200191846001830284011164010000000083111715610dbc57600080fd5b91908080601f016020809104026020016040519081016040528093929190818152602001838380828437600081840152601f19601f82011690508083019250505050505050919291929080359060200190640100000000811115610e1f57600080fd5b820183602082011115610e3157600080fd5b80359060200191846001830284011164010000000083111715610e5357600080fd5b91908080601f016020809104026020016040519081016040528093929190818152602001838380828437600081840152601f19601f82011690508083019250505050505050919291929080359060200190640100000000811115610eb657600080fd5b820183602082011115610ec857600080fd5b80359060200191846001830284011164010000000083111715610eea57600080fd5b91908080601f016020809104026020016040519081016040528093929190818152602001838380828437600081840152601f19601f82011690508083019250505050505050919291929080359060200190640100000000811115610f4d57600080fd5b820183602082011115610f5f57600080fd5b80359060200191846001830284011164010000000083111715610f8157600080fd5b91908080601f016020809104026020016040519081016040528093929190818152602001838380828437600081840152601f19601f820116905080830192505050505050509192919290505050613930565b005b610fdd613ac4565b6040518082815260200191505060405180910390f35b61101f6004803603602081101561100957600080fd5b8101908080359060200190929190505050613aca565b005b6111716004803603604081101561103757600080fd5b810190808035906020019064010000000081111561105457600080fd5b82018360208201111561106657600080fd5b8035906020019184600183028401116401000000008311171561108857600080fd5b91908080601f016020809104026020016040519081016040528093929190818152602001838380828437600081840152601f19601f820116905080830192505050505050509192919290803590602001906401000000008111156110eb57600080fd5b8201836020820111156110fd57600080fd5b8035906020019184600183028401116401000000008311171561111f57600080fd5b91908080601f016020809104026020016040519081016040528093929190818152602001838380828437600081840152601f19601f820116905080830192505050505050509192919290505050613b9c565b005b611411600480360360a081101561118957600080fd5b81019080803573ffffffffffffffffffffffffffffffffffffffff169060200190929190803590602001906401000000008111156111c657600080fd5b8201836020820111156111d857600080fd5b803590602001918460018302840111640100000000831117156111fa57600080fd5b91908080601f016020809104026020016040519081016040528093929190818152602001838380828437600081840152601f19601f8201169050808301925050505050505091929192908035906020019064010000000081111561125d57600080fd5b82018360208201111561126f57600080fd5b8035906020019184600183028401116401000000008311171561129157600080fd5b91908080601f016020809104026020016040519081016040528093929190818152602001838380828437600081840152601f19601f820116905080830192505050505050509192919290803590602001906401000000008111156112f457600080fd5b82018360208201111561130657600080fd5b8035906020019184600183028401116401000000008311171561132857600080fd5b91908080601f016020809104026020016040519081016040528093929190818152602001838380828437600081840152601f19601f8201169050808301925050505050505091929192908035906020019064010000000081111561138b57600080fd5b82018360208201111561139d57600080fd5b803590602001918460018302840111640100000000831117156113bf57600080fd5b91908080601f016020809104026020016040519081016040528093929190818152602001838380828437600081840152601f19601f820116905080830192505050505050509192919290505050613d3d565b005b61143f6004803603602081101561142957600080fd5b8101908080359060200190929190505050613ed1565b005b61146d6004803603602081101561145757600080fd5b8101908080359060200190929190505050613fa3565b6040518086815260200180602001806020018581526020018473ffffffffffffffffffffffffffffffffffffffff1673ffffffffffffffffffffffffffffffffffffffff168152602001838103835287818151815260200191508051906020019080838360005b838110156114ef5780820151818401526020810190506114d4565b50505050905090810190601f16801561151c5780820380516001836020036101000a031916815260200191505b50838103825286818151815260200191508051906020019080838360005b8381101561155557808201518184015260208101905061153a565b50505050905090810190601f1680156115825780820380516001836020036101000a031916815260200191505b5097505050505050505060405180910390f35b61159d614129565b6040518082815260200191505060405180910390f35b6115bb61412f565b604051808273ffffffffffffffffffffffffffffffffffffffff1673ffffffffffffffffffffffffffffffffffffffff16815260200191505060405180910390f35b6116296004803603602081101561161357600080fd5b8101908080359060200190929190505050614154565b604051808773ffffffffffffffffffffffffffffffffffffffff1673ffffffffffffffffffffffffffffffffffffffff16815260200186815260200180602001806020018060200180602001858103855289818151815260200191508051906020019080838360005b838110156116ad578082015181840152602081019050611692565b50505050905090810190601f1680156116da5780820380516001836020036101000a031916815260200191505b50858103845288818151815260200191508051906020019080838360005b838110156117135780820151818401526020810190506116f8565b50505050905090810190601f1680156117405780820380516001836020036101000a031916815260200191505b50858103835287818151815260200191508051906020019080838360005b8381101561177957808201518184015260208101905061175e565b50505050905090810190601f1680156117a65780820380516001836020036101000a031916815260200191505b50858103825286818151815260200191508051906020019080838360005b838110156117df5780820151818401526020810190506117c4565b50505050905090810190601f16801561180c5780820380516001836020036101000a031916815260200191505b509a505050505050505050505060405180910390f35b61197c6004803603606081101561183857600080fd5b81019080803590602001909291908035906020019064010000000081111561185f57600080fd5b82018360208201111561187157600080fd5b8035906020019184600183028401116401000000008311171561189357600080fd5b91908080601f016020809104026020016040519081016040528093929190818152602001838380828437600081840152601f19601f820116905080830192505050505050509192919290803590602001906401000000008111156118f657600080fd5b82018360208201111561190857600080fd5b8035906020019184600183028401116401000000008311171561192a57600080fd5b91908080601f016020809104026020016040519081016040528093929190818152602001838380828437600081840152601f19601f820116905080830192505050505050509192919290505050614410565b005b611c1c600480360360a081101561199457600080fd5b81019080803573ffffffffffffffffffffffffffffffffffffffff169060200190929190803590602001906401000000008111156119d157600080fd5b8201836020820111156119e357600080fd5b80359060200191846001830284011164010000000083111715611a0557600080fd5b91908080601f016020809104026020016040519081016040528093929190818152602001838380828437600081840152601f19601f82011690508083019250505050505050919291929080359060200190640100000000811115611a6857600080fd5b820183602082011115611a7a57600080fd5b80359060200191846001830284011164010000000083111715611a9c57600080fd5b91908080601f016020809104026020016040519081016040528093929190818152602001838380828437600081840152601f19601f82011690508083019250505050505050919291929080359060200190640100000000811115611aff57600080fd5b820183602082011115611b1157600080fd5b80359060200191846001830284011164010000000083111715611b3357600080fd5b91908080601f016020809104026020016040519081016040528093929190818152602001838380828437600081840152601f19601f82011690508083019250505050505050919291929080359060200190640100000000811115611b9657600080fd5b820183602082011115611ba857600080fd5b80359060200191846001830284011164010000000083111715611bca57600080fd5b91908080601f016020809104026020016040519081016040528093929190818152602001838380828437600081840152601f19601f8201169050808301925050505050505091929192905050506145e9565b005b611c2661477d565b6040518082815260200191505060405180910390f35b611c6860048036036020811015611c5257600080fd5b8101908080359060200190929190505050614783565b6040518080602001828103825283818151815260200191508051906020019080838360005b83811015611ca8578082015181840152602081019050611c8d565b50505050905090810190601f168015611cd55780820380516001836020036101000a031916815260200191505b509250505060405180910390f35b611d0f60048036036020811015611cf957600080fd5b8101908080359060200190929190505050614a93565b604051808981526020018060200180602001888152602001878152602001868152602001858152602001846005811115611d4557fe5b60ff16815260200183810383528a818151815260200191508051906020019080838360005b83811015611d85578082015181840152602081019050611d6a565b50505050905090810190601f168015611db25780820380516001836020036101000a031916815260200191505b50838103825289818151815260200191508051906020019080838360005b83811015611deb578082015181840152602081019050611dd0565b50505050905090810190601f168015611e185780820380516001836020036101000a031916815260200191505b509a505050505050505050505060405180910390f35b611e5a60048036036020811015611e4457600080fd5b8101908080359060200190929190505050614c18565b604051808773ffffffffffffffffffffffffffffffffffffffff1673ffffffffffffffffffffffffffffffffffffffff16815260200186815260200180602001806020018060200180602001858103855289818151815260200191508051906020019080838360005b83811015611ede578082015181840152602081019050611ec3565b50505050905090810190601f168015611f0b5780820380516001836020036101000a031916815260200191505b50858103845288818151815260200191508051906020019080838360005b83811015611f44578082015181840152602081019050611f29565b50505050905090810190601f168015611f715780820380516001836020036101000a031916815260200191505b50858103835287818151815260200191508051906020019080838360005b83811015611faa578082015181840152602081019050611f8f565b50505050905090810190601f168015611fd75780820380516001836020036101000a031916815260200191505b50858103825286818151815260200191508051906020019080838360005b83811015612010578082015181840152602081019050611ff5565b50505050905090810190601f16801561203d5780820380516001836020036101000a031916815260200191505b509a505050505050505050505060405180910390f35b606060008090506000600190505b600c5481116120ea578373ffffffffffffffffffffffffffffffffffffffff16600b600083815260200190815260200160002060040160009054906101000a900473ffffffffffffffffffffffffffffffffffffffff1673ffffffffffffffffffffffffffffffffffffffff1614156120dd5781806001019250505b8080600101915050612061565b508060405190808252806020026020018201604052801561211a5781602001602082028038833980820191505090505b509150600090506000600190505b600c5481116121ca578373ffffffffffffffffffffffffffffffffffffffff16600b600083815260200190815260200160002060040160009054906101000a900473ffffffffffffffffffffffffffffffffffffffff1673ffffffffffffffffffffffffffffffffffffffff1614156121bd57808383815181106121a857fe5b60200260200101818152505081806001019250505b8080600101915050612128565b5081915050919050565b6000809054906101000a900473ffffffffffffffffffffffffffffffffffffffff1673ffffffffffffffffffffffffffffffffffffffff163373ffffffffffffffffffffffffffffffffffffffff161461222d57600080fd5b6004600081548092919060010191905055506040518060c001604052808673ffffffffffffffffffffffffffffffffffffffff16815260200160045481526020018581526020018481526020018381526020018281525060096000600454815260200190815260200160002060008201518160000160006101000a81548173ffffffffffffffffffffffffffffffffffffffff021916908373ffffffffffffffffffffffffffffffffffffffff160217905550602082015181600101556040820151816002019080519060200190612306929190615729565b506060820151816003019080519060200190612323929190615729565b506080820151816004019080519060200190612340929190615729565b5060a082015181600501908051906020019061235d929190615729565b509050505050505050565b60608060608060006123af866040518060400160405280600b81526020017f726177737570706c696572000000000000000000000000000000000000000000815250614ed4565b905060008111156126905760076000828152602001908152602001600020600201600760008381526020019081526020016000206003016007600084815260200190815260200160002060040160076000858152602001908152602001600020600501838054600181600116156101000203166002900480601f0160208091040260200160405190810160405280929190818152602001828054600181600116156101000203166002900480156124a75780601f1061247c576101008083540402835291602001916124a7565b820191906000526020600020905b81548152906001019060200180831161248a57829003601f168201915b50505050509350828054600181600116156101000203166002900480601f0160208091040260200160405190810160405280929190818152602001828054600181600116156101000203166002900480156125435780601f1061251857610100808354040283529160200191612543565b820191906000526020600020905b81548152906001019060200180831161252657829003601f168201915b50505050509250818054600181600116156101000203166002900480601f0160208091040260200160405190810160405280929190818152602001828054600181600116156101000203166002900480156125df5780601f106125b4576101008083540402835291602001916125df565b820191906000526020600020905b8154815290600101906020018083116125c257829003601f168201915b50505050509150808054600181600116156101000203166002900480601f01602080910402602001604051908101604052809291908181526020018280546001816001161561010002031660029004801561267b5780601f106126505761010080835404028352916020019161267b565b820191906000526020600020905b81548152906001019060200180831161265e57829003601f168201915b50505050509050945094509450945050613049565b60006126d1876040518060400160405280600881526020017f72657461696c6572000000000000000000000000000000000000000000000000815250614ed4565b905060008111156129b357600a6000828152602001908152602001600020600201600a6000838152602001908152602001600020600301600a6000848152602001908152602001600020600401600a6000858152602001908152602001600020600501838054600181600116156101000203166002900480601f0160208091040260200160405190810160405280929190818152602001828054600181600116156101000203166002900480156127c95780601f1061279e576101008083540402835291602001916127c9565b820191906000526020600020905b8154815290600101906020018083116127ac57829003601f168201915b50505050509350828054600181600116156101000203166002900480601f0160208091040260200160405190810160405280929190818152602001828054600181600116156101000203166002900480156128655780601f1061283a57610100808354040283529160200191612865565b820191906000526020600020905b81548152906001019060200180831161284857829003601f168201915b50505050509250818054600181600116156101000203166002900480601f0160208091040260200160405190810160405280929190818152602001828054600181600116156101000203166002900480156129015780601f106128d657610100808354040283529160200191612901565b820191906000526020600020905b8154815290600101906020018083116128e457829003601f168201915b50505050509150808054600181600116156101000203166002900480601f01602080910402602001604051908101604052809291908181526020018280546001816001161561010002031660029004801561299d5780601f106129725761010080835404028352916020019161299d565b820191906000526020600020905b81548152906001019060200180831161298057829003601f168201915b5050505050905095509550955095505050613049565b60006129f4886040518060400160405280600b81526020017f6469737472696275746f72000000000000000000000000000000000000000000815250614ed4565b90506000811115612cd75760096000828152602001908152602001600020600201600960008381526020019081526020016000206003016009600084815260200190815260200160002060040160096000858152602001908152602001600020600501838054600181600116156101000203166002900480601f016020809104026020016040519081016040528092919081815260200182805460018160011615610100020316600290048015612aec5780601f10612ac157610100808354040283529160200191612aec565b820191906000526020600020905b815481529060010190602001808311612acf57829003601f168201915b50505050509350828054600181600116156101000203166002900480601f016020809104026020016040519081016040528092919081815260200182805460018160011615610100020316600290048015612b885780601f10612b5d57610100808354040283529160200191612b88565b820191906000526020600020905b815481529060010190602001808311612b6b57829003601f168201915b50505050509250818054600181600116156101000203166002900480601f016020809104026020016040519081016040528092919081815260200182805460018160011615610100020316600290048015612c245780601f10612bf957610100808354040283529160200191612c24565b820191906000526020600020905b815481529060010190602001808311612c0757829003601f168201915b50505050509150808054600181600116156101000203166002900480601f016020809104026020016040519081016040528092919081815260200182805460018160011615610100020316600290048015612cc05780601f10612c9557610100808354040283529160200191612cc0565b820191906000526020600020905b815481529060010190602001808311612ca357829003601f168201915b505050505090509650965096509650505050613049565b6000612d18896040518060400160405280600c81526020017f6d616e7566616374757265720000000000000000000000000000000000000000815250614ed4565b90506000811115612ffc5760086000828152602001908152602001600020600201600860008381526020019081526020016000206003016008600084815260200190815260200160002060040160086000858152602001908152602001600020600501838054600181600116156101000203166002900480601f016020809104026020016040519081016040528092919081815260200182805460018160011615610100020316600290048015612e105780601f10612de557610100808354040283529160200191612e10565b820191906000526020600020905b815481529060010190602001808311612df357829003601f168201915b50505050509350828054600181600116156101000203166002900480601f016020809104026020016040519081016040528092919081815260200182805460018160011615610100020316600290048015612eac5780601f10612e8157610100808354040283529160200191612eac565b820191906000526020600020905b815481529060010190602001808311612e8f57829003601f168201915b50505050509250818054600181600116156101000203166002900480601f016020809104026020016040519081016040528092919081815260200182805460018160011615610100020316600290048015612f485780601f10612f1d57610100808354040283529160200191612f48565b820191906000526020600020905b815481529060010190602001808311612f2b57829003601f168201915b50505050509150808054600181600116156101000203166002900480601f016020809104026020016040519081016040528092919081815260200182805460018160011615610100020316600290048015612fe45780601f10612fb957610100808354040283529160200191612fe4565b820191906000526020600020905b815481529060010190602001808311612fc757829003601f168201915b50505050509050975097509750975050505050613049565b604051806020016040528060008152506040518060200160405280600081525060405180602001604052806000815250604051806020016040528060008152509750975097509750505050505b9193509193565b6060806000806000851180156130685750600c548511155b61307157600080fd5b6000600b60008781526020019081526020016000209050806001018160020182600301548360040160009054906101000a900473ffffffffffffffffffffffffffffffffffffffff16838054600181600116156101000203166002900480601f01602080910402602001604051908101604052809291908181526020018280546001816001161561010002031660029004801561314f5780601f106131245761010080835404028352916020019161314f565b820191906000526020600020905b81548152906001019060200180831161313257829003601f168201915b50505050509350828054600181600116156101000203166002900480601f0160208091040260200160405190810160405280929190818152602001828054600181600116156101000203166002900480156131eb5780601f106131c0576101008083540402835291602001916131eb565b820191906000526020600020905b8154815290600101906020018083116131ce57829003601f168201915b505050505092509450945094509450509193509193565b60096020528060005260406000206000915090508060000160009054906101000a900473ffffffffffffffffffffffffffffffffffffffff1690806001015490806002018054600181600116156101000203166002900480601f0160208091040260200160405190810160405280929190818152602001828054600181600116156101000203166002900480156132da5780601f106132af576101008083540402835291602001916132da565b820191906000526020600020905b8154815290600101906020018083116132bd57829003601f168201915b505050505090806003018054600181600116156101000203166002900480601f0160208091040260200160405190810160405280929190818152602001828054600181600116156101000203166002900480156133785780601f1061334d57610100808354040283529160200191613378565b820191906000526020600020905b81548152906001019060200180831161335b57829003601f168201915b505050505090806004018054600181600116156101000203166002900480601f0160208091040260200160405190810160405280929190818152602001828054600181600116156101000203166002900480156134165780601f106133eb57610100808354040283529160200191613416565b820191906000526020600020905b8154815290600101906020018083116133f957829003601f168201915b505050505090806005018054600181600116156101000203166002900480601f0160208091040260200160405190810160405280929190818152602001828054600181600116156101000203166002900480156134b45780601f10613489576101008083540402835291602001916134b4565b820191906000526020600020905b81548152906001019060200180831161349757829003601f168201915b5050505050905086565b60045481565b6000811180156134d657506001548111155b6134df57600080fd5b60006134ea33615425565b9050600081116134f957600080fd5b6003600581111561350657fe5b6006600084815260200190815260200160002060070160009054906101000a900460ff16600581111561353557fe5b1461353f57600080fd5b80600660008481526020019081526020016000206006018190555060046006600084815260200190815260200160002060070160006101000a81548160ff0219169083600581111561358d57fe5b02179055505050565b60035481565b6000811180156135ae57506001548111155b6135b757600080fd5b60006135c2336154e6565b9050600081116135d157600080fd5b600260058111156135de57fe5b6006600084815260200190815260200160002060070160009054906101000a900460ff16600581111561360d57fe5b1461361757600080fd5b80600660008481526020019081526020016000206005018190555060036006600084815260200190815260200160002060070160006101000a81548160ff0219169083600581111561366557fe5b02179055505050565b600a6020528060005260406000206000915090508060000160009054906101000a900473ffffffffffffffffffffffffffffffffffffffff1690806001015490806002018054600181600116156101000203166002900480601f0160208091040260200160405190810160405280929190818152602001828054600181600116156101000203166002900480156137465780601f1061371b57610100808354040283529160200191613746565b820191906000526020600020905b81548152906001019060200180831161372957829003601f168201915b505050505090806003018054600181600116156101000203166002900480601f0160208091040260200160405190810160405280929190818152602001828054600181600116156101000203166002900480156137e45780601f106137b9576101008083540402835291602001916137e4565b820191906000526020600020905b8154815290600101906020018083116137c757829003601f168201915b505050505090806004018054600181600116156101000203166002900480601f0160208091040260200160405190810160405280929190818152602001828054600181600116156101000203166002900480156138825780601f1061385757610100808354040283529160200191613882565b820191906000526020600020905b81548152906001019060200180831161386557829003601f168201915b505050505090806005018054600181600116156101000203166002900480601f0160208091040260200160405190810160405280929190818152602001828054600181600116156101000203166002900480156139205780601f106138f557610100808354040283529160200191613920565b820191906000526020600020905b81548152906001019060200180831161390357829003601f168201915b5050505050905086565b600c5481565b6000809054906101000a900473ffffffffffffffffffffffffffffffffffffffff1673ffffffffffffffffffffffffffffffffffffffff163373ffffffffffffffffffffffffffffffffffffffff161461398957600080fd5b6003600081548092919060010191905055506040518060c001604052808673ffffffffffffffffffffffffffffffffffffffff16815260200160035481526020018581526020018481526020018381526020018281525060086000600354815260200190815260200160002060008201518160000160006101000a81548173ffffffffffffffffffffffffffffffffffffffff021916908373ffffffffffffffffffffffffffffffffffffffff160217905550602082015181600101556040820151816002019080519060200190613a62929190615729565b506060820151816003019080519060200190613a7f929190615729565b506080820151816004019080519060200190613a9c929190615729565b5060a0820151816005019080519060200190613ab9929190615729565b509050505050505050565b60055481565b600081118015613adc57506001548111155b613ae557600080fd5b6000613af0336155a7565b905060008111613aff57600080fd5b60006005811115613b0c57fe5b6006600084815260200190815260200160002060070160009054906101000a900460ff166005811115613b3b57fe5b14613b4557600080fd5b80600660008481526020019081526020016000206003018190555060016006600084815260200190815260200160002060070160006101000a81548160ff02191690836005811115613b9357fe5b02179055505050565b6000809054906101000a900473ffffffffffffffffffffffffffffffffffffffff1673ffffffffffffffffffffffffffffffffffffffff163373ffffffffffffffffffffffffffffffffffffffff1614613bf557600080fd5b6000600254118015613c0957506000600354115b8015613c1757506000600454115b8015613c2557506000600554115b613c2e57600080fd5b60016000815480929190600101919050555060405180610100016040528060015481526020018381526020018281526020016000815260200160008152602001600081526020016000815260200160006005811115613c8957fe5b815250600660006001548152602001908152602001600020600082015181600001556020820151816001019080519060200190613cc7929190615729565b506040820151816002019080519060200190613ce4929190615729565b50606082015181600301556080820151816004015560a0820151816005015560c0820151816006015560e08201518160070160006101000a81548160ff02191690836005811115613d3157fe5b02179055509050505050565b6000809054906101000a900473ffffffffffffffffffffffffffffffffffffffff1673ffffffffffffffffffffffffffffffffffffffff163373ffffffffffffffffffffffffffffffffffffffff1614613d9657600080fd5b6002600081548092919060010191905055506040518060c001604052808673ffffffffffffffffffffffffffffffffffffffff16815260200160025481526020018581526020018481526020018381526020018281525060076000600254815260200190815260200160002060008201518160000160006101000a81548173ffffffffffffffffffffffffffffffffffffffff021916908373ffffffffffffffffffffffffffffffffffffffff160217905550602082015181600101556040820151816002019080519060200190613e6f929190615729565b506060820151816003019080519060200190613e8c929190615729565b506080820151816004019080519060200190613ea9929190615729565b5060a0820151816005019080519060200190613ec6929190615729565b509050505050505050565b600081118015613ee357506001548111155b613eec57600080fd5b6000613ef733615668565b905060008111613f0657600080fd5b60016005811115613f1357fe5b6006600084815260200190815260200160002060070160009054906101000a900460ff166005811115613f4257fe5b14613f4c57600080fd5b80600660008481526020019081526020016000206004018190555060026006600084815260200190815260200160002060070160006101000a81548160ff02191690836005811115613f9a57fe5b02179055505050565b600b602052806000526040600020600091509050806000015490806001018054600181600116156101000203166002900480601f0160208091040260200160405190810160405280929190818152602001828054600181600116156101000203166002900480156140555780601f1061402a57610100808354040283529160200191614055565b820191906000526020600020905b81548152906001019060200180831161403857829003601f168201915b505050505090806002018054600181600116156101000203166002900480601f0160208091040260200160405190810160405280929190818152602001828054600181600116156101000203166002900480156140f35780601f106140c8576101008083540402835291602001916140f3565b820191906000526020600020905b8154815290600101906020018083116140d657829003601f168201915b5050505050908060030154908060040160009054906101000a900473ffffffffffffffffffffffffffffffffffffffff16905085565b60015481565b6000809054906101000a900473ffffffffffffffffffffffffffffffffffffffff1681565b60086020528060005260406000206000915090508060000160009054906101000a900473ffffffffffffffffffffffffffffffffffffffff1690806001015490806002018054600181600116156101000203166002900480601f01602080910402602001604051908101604052809291908181526020018280546001816001161561010002031660029004801561422c5780601f106142015761010080835404028352916020019161422c565b820191906000526020600020905b81548152906001019060200180831161420f57829003601f168201915b505050505090806003018054600181600116156101000203166002900480601f0160208091040260200160405190810160405280929190818152602001828054600181600116156101000203166002900480156142ca5780601f1061429f576101008083540402835291602001916142ca565b820191906000526020600020905b8154815290600101906020018083116142ad57829003601f168201915b505050505090806004018054600181600116156101000203166002900480601f0160208091040260200160405190810160405280929190818152602001828054600181600116156101000203166002900480156143685780601f1061433d57610100808354040283529160200191614368565b820191906000526020600020905b81548152906001019060200180831161434b57829003601f168201915b505050505090806005018054600181600116156101000203166002900480601f0160208091040260200160405190810160405280929190818152602001828054600181600116156101000203166002900480156144065780601f106143db57610100808354040283529160200191614406565b820191906000526020600020905b8154815290600101906020018083116143e957829003601f168201915b5050505050905086565b60008311801561442257506001548311155b61442b57600080fd5b600061443633615425565b90506000811161444557600080fd5b6006600085815260200190815260200160002060060154811461446757600080fd5b6004600581111561447457fe5b6006600086815260200190815260200160002060070160009054906101000a900460ff1660058111156144a357fe5b146144ad57600080fd5b600c600081548092919060010191905055506040518060a00160405280600c5481526020018481526020018381526020018581526020013373ffffffffffffffffffffffffffffffffffffffff16815250600b6000600c548152602001908152602001600020600082015181600001556020820151816001019080519060200190614539929190615729565b506040820151816002019080519060200190614556929190615729565b506060820151816003015560808201518160040160006101000a81548173ffffffffffffffffffffffffffffffffffffffff021916908373ffffffffffffffffffffffffffffffffffffffff16021790555090505060056006600086815260200190815260200160002060070160006101000a81548160ff021916908360058111156145de57fe5b021790555050505050565b6000809054906101000a900473ffffffffffffffffffffffffffffffffffffffff1673ffffffffffffffffffffffffffffffffffffffff163373ffffffffffffffffffffffffffffffffffffffff161461464257600080fd5b6005600081548092919060010191905055506040518060c001604052808673ffffffffffffffffffffffffffffffffffffffff168152602001600554815260200185815260200184815260200183815260200182815250600a6000600554815260200190815260200160002060008201518160000160006101000a81548173ffffffffffffffffffffffffffffffffffffffff021916908373ffffffffffffffffffffffffffffffffffffffff16021790555060208201518160010155604082015181600201908051906020019061471b929190615729565b506060820151816003019080519060200190614738929190615729565b506080820151816004019080519060200190614755929190615729565b5060a0820151816005019080519060200190614772929190615729565b509050505050505050565b60025481565b606060006001541161479457600080fd5b600060058111156147a157fe5b6006600084815260200190815260200160002060070160009054906101000a900460ff1660058111156147d057fe5b1415614813576040518060400160405280601081526020017f4d65646963696e65204f726465726564000000000000000000000000000000008152509050614a8e565b6001600581111561482057fe5b6006600084815260200190815260200160002060070160009054906101000a900460ff16600581111561484f57fe5b1415614892576040518060400160405280601981526020017f526177204d6174657269616c20537570706c79205374616765000000000000008152509050614a8e565b6002600581111561489f57fe5b6006600084815260200190815260200160002060070160009054906101000a900460ff1660058111156148ce57fe5b1415614911576040518060400160405280601381526020017f4d616e75666163747572696e67205374616765000000000000000000000000008152509050614a8e565b6003600581111561491e57fe5b6006600084815260200190815260200160002060070160009054906101000a900460ff16600581111561494d57fe5b1415614990576040518060400160405280601281526020017f446973747269627574696f6e20537461676500000000000000000000000000008152509050614a8e565b6004600581111561499d57fe5b6006600084815260200190815260200160002060070160009054906101000a900460ff1660058111156149cc57fe5b1415614a0f576040518060400160405280600c81526020017f52657461696c20537461676500000000000000000000000000000000000000008152509050614a8e565b600580811115614a1b57fe5b6006600084815260200190815260200160002060070160009054906101000a900460ff166005811115614a4a57fe5b1415614a8d576040518060400160405280600d81526020017f4d65646963696e6520536f6c64000000000000000000000000000000000000008152509050614a8e565b5b919050565b6006602052806000526040600020600091509050806000015490806001018054600181600116156101000203166002900480601f016020809104026020016040519081016040528092919081815260200182805460018160011615610100020316600290048015614b455780601f10614b1a57610100808354040283529160200191614b45565b820191906000526020600020905b815481529060010190602001808311614b2857829003601f168201915b505050505090806002018054600181600116156101000203166002900480601f016020809104026020016040519081016040528092919081815260200182805460018160011615610100020316600290048015614be35780601f10614bb857610100808354040283529160200191614be3565b820191906000526020600020905b815481529060010190602001808311614bc657829003601f168201915b5050505050908060030154908060040154908060050154908060060154908060070160009054906101000a900460ff16905088565b60076020528060005260406000206000915090508060000160009054906101000a900473ffffffffffffffffffffffffffffffffffffffff1690806001015490806002018054600181600116156101000203166002900480601f016020809104026020016040519081016040528092919081815260200182805460018160011615610100020316600290048015614cf05780601f10614cc557610100808354040283529160200191614cf0565b820191906000526020600020905b815481529060010190602001808311614cd357829003601f168201915b505050505090806003018054600181600116156101000203166002900480601f016020809104026020016040519081016040528092919081815260200182805460018160011615610100020316600290048015614d8e5780601f10614d6357610100808354040283529160200191614d8e565b820191906000526020600020905b815481529060010190602001808311614d7157829003601f168201915b505050505090806004018054600181600116156101000203166002900480601f016020809104026020016040519081016040528092919081815260200182805460018160011615610100020316600290048015614e2c5780601f10614e0157610100808354040283529160200191614e2c565b820191906000526020600020905b815481529060010190602001808311614e0f57829003601f168201915b505050505090806005018054600181600116156101000203166002900480601f016020809104026020016040519081016040528092919081815260200182805460018160011615610100020316600290048015614eca5780601f10614e9f57610100808354040283529160200191614eca565b820191906000526020600020905b815481529060010190602001808311614ead57829003601f168201915b5050505050905086565b600060405160200180807f72657461696c6572000000000000000000000000000000000000000000000000815250600801905060405160208183030381529060405280519060200120826040516020018082805190602001908083835b60208310614f545780518252602082019150602081019050602083039250614f31565b6001836020036101000a038019825116818451168082178552505050505050905001915050604051602081830303815290604052805190602001201415615027576000600190505b6005548111615025578373ffffffffffffffffffffffffffffffffffffffff16600a600083815260200190815260200160002060000160009054906101000a900473ffffffffffffffffffffffffffffffffffffffff1673ffffffffffffffffffffffffffffffffffffffff161415615018578091505061541f565b8080600101915050614f9c565b505b60405160200180807f726177737570706c696572000000000000000000000000000000000000000000815250600b01905060405160208183030381529060405280519060200120826040516020018082805190602001908083835b602083106150a55780518252602082019150602081019050602083039250615082565b6001836020036101000a038019825116818451168082178552505050505050905001915050604051602081830303815290604052805190602001201415615178576000600190505b6002548111615176578373ffffffffffffffffffffffffffffffffffffffff166007600083815260200190815260200160002060000160009054906101000a900473ffffffffffffffffffffffffffffffffffffffff1673ffffffffffffffffffffffffffffffffffffffff161415615169578091505061541f565b80806001019150506150ed565b505b60405160200180807f6469737472696275746f72000000000000000000000000000000000000000000815250600b01905060405160208183030381529060405280519060200120826040516020018082805190602001908083835b602083106151f657805182526020820191506020810190506020830392506151d3565b6001836020036101000a0380198251168184511680821785525050505050509050019150506040516020818303038152906040528051906020012014156152c9576000600190505b60045481116152c7578373ffffffffffffffffffffffffffffffffffffffff166009600083815260200190815260200160002060000160009054906101000a900473ffffffffffffffffffffffffffffffffffffffff1673ffffffffffffffffffffffffffffffffffffffff1614156152ba578091505061541f565b808060010191505061523e565b505b60405160200180807f6d616e7566616374757265720000000000000000000000000000000000000000815250600c01905060405160208183030381529060405280519060200120826040516020018082805190602001908083835b602083106153475780518252602082019150602081019050602083039250615324565b6001836020036101000a03801982511681845116808217855250505050505090500191505060405160208183030381529060405280519060200120141561541a576000600190505b6003548111615418578373ffffffffffffffffffffffffffffffffffffffff166008600083815260200190815260200160002060000160009054906101000a900473ffffffffffffffffffffffffffffffffffffffff1673ffffffffffffffffffffffffffffffffffffffff16141561540b578091505061541f565b808060010191505061538f565b505b600090505b92915050565b6000806005541161543557600080fd5b6000600190505b60055481116154db578273ffffffffffffffffffffffffffffffffffffffff16600a600083815260200190815260200160002060000160009054906101000a900473ffffffffffffffffffffffffffffffffffffffff1673ffffffffffffffffffffffffffffffffffffffff1614156154ce57600a6000828152602001908152602001600020600101549150506154e1565b808060010191505061543c565b50600090505b919050565b600080600454116154f657600080fd5b6000600190505b600454811161559c578273ffffffffffffffffffffffffffffffffffffffff166009600083815260200190815260200160002060000160009054906101000a900473ffffffffffffffffffffffffffffffffffffffff1673ffffffffffffffffffffffffffffffffffffffff16141561558f5760096000828152602001908152602001600020600101549150506155a2565b80806001019150506154fd565b50600090505b919050565b600080600254116155b757600080fd5b6000600190505b600254811161565d578273ffffffffffffffffffffffffffffffffffffffff166007600083815260200190815260200160002060000160009054906101000a900473ffffffffffffffffffffffffffffffffffffffff1673ffffffffffffffffffffffffffffffffffffffff161415615650576007600082815260200190815260200160002060010154915050615663565b80806001019150506155be565b50600090505b919050565b6000806003541161567857600080fd5b6000600190505b600354811161571e578273ffffffffffffffffffffffffffffffffffffffff166008600083815260200190815260200160002060000160009054906101000a900473ffffffffffffffffffffffffffffffffffffffff1673ffffffffffffffffffffffffffffffffffffffff161415615711576008600082815260200190815260200160002060010154915050615724565b808060010191505061567f565b50600090505b919050565b828054600181600116156101000203166002900490600052602060002090601f016020900481019282601f1061576a57805160ff1916838001178555615798565b82800160010185558215615798579182015b8281111561579757825182559160200191906001019061577c565b5b5090506157a591906157a9565b5090565b6157cb91905b808211156157c75760008160009055506001016157af565b5090565b9056fea265627a7a723158207c334e16174a0a2d746b66013a7f41e1aa7f43e0687d420083be6316ef10479b64736f6c63430005100032",
  "source": "// SPDX-License-Identifier: MIT\npragma solidity >=0.4.22 <0.9.0;\n\ncontract SupplyChain {\n    //Smart Contract owner will be the person who deploys the contract only he can authorize various roles like retailer, Manufacturer,etc\n    address public Owner;\n\n    //note this constructor will be called when smart contract will be deployed on blockchain\n    constructor() public {\n        Owner = msg.sender;\n    }\n\n    //Roles (flow of pharma supply chain)\n    // RawMaterialSupplier; //This is where Manufacturer will get raw materials to make medicines\n    // Manufacturer;  //Various WHO guidelines should be followed by this person\n    // Distributor; //This guy distributes the medicines to retailers\n    // Retailer; //Normal customer buys from the retailer\n\n    //modifier to make sure only the owner is using the function\n    modifier onlyByOwner() {\n        require(msg.sender == Owner);\n        _;\n    }\n\n    //stages of a medicine in pharma supply chain\n    enum STAGE {\n        Init,\n        RawMaterialSupply,\n        Manufacture,\n        Distribution,\n        Retail,\n        sold\n    }\n    //using this we are going to track every single medicine the owner orders\n\n    //Medicine count\n    uint256 public medicineCtr = 0;\n    //Raw material supplier count\n    uint256 public rmsCtr = 0;\n    //Manufacturer count\n    uint256 public manCtr = 0;\n    //distributor count\n    uint256 public disCtr = 0;\n    //retailer count\n    uint256 public retCtr = 0;\n\n    //To store information about the medicine\n    struct medicine {\n        uint256 id; //unique medicine id\n        string name; //name of the medicine\n        string description; //about medicine\n        uint256 RMSid; //id of the Raw Material supplier for this particular medicine\n        uint256 MANid; //id of the Manufacturer for this particular medicine\n        uint256 DISid; //id of the distributor for this particular medicine\n        uint256 RETid; //id of the retailer for this particular medicine\n        STAGE stage; //current medicine stage\n    }\n\n    //To store all the medicines on the blockchain\n    mapping(uint256 => medicine) public MedicineStock;\n\n    //To show status to client applications\n    function showStage(\n        uint256 _medicineID\n    ) public view returns (string memory) {\n        require(medicineCtr > 0);\n        if (MedicineStock[_medicineID].stage == STAGE.Init)\n            return \"Medicine Ordered\";\n        else if (MedicineStock[_medicineID].stage == STAGE.RawMaterialSupply)\n            return \"Raw Material Supply Stage\";\n        else if (MedicineStock[_medicineID].stage == STAGE.Manufacture)\n            return \"Manufacturing Stage\";\n        else if (MedicineStock[_medicineID].stage == STAGE.Distribution)\n            return \"Distribution Stage\";\n        else if (MedicineStock[_medicineID].stage == STAGE.Retail)\n            return \"Retail Stage\";\n        else if (MedicineStock[_medicineID].stage == STAGE.sold)\n            return \"Medicine Sold\";\n    }\n\n    //To store information about raw material supplier\n    struct rawMaterialSupplier {\n        address addr;\n        uint256 id; //supplier id\n        string name; //Name of the raw material supplier\n        string place; //Place the raw material supplier is based in\n        string phone; //Phone number of the raw material supplier\n        string role; //Role of the raw material supplier\n    }\n\n    //To store all the raw material suppliers on the blockchain\n    mapping(uint256 => rawMaterialSupplier) public RMS;\n\n    //To store information about manufacturer\n    struct manufacturer {\n        address addr;\n        uint256 id; //manufacturer id\n        string name; //Name of the manufacturer\n        string place; //Place the manufacturer is based in\n        string phone; //Phone number of the manufacturer\n        string role; //Role of the manufacturer\n    }\n\n    //To store all the manufacturers on the blockchain\n    mapping(uint256 => manufacturer) public MAN;\n\n    //To store information about distributor\n    struct distributor {\n        address addr;\n        uint256 id; //distributor id\n        string name; //Name of the distributor\n        string place; //Place the distributor is based in\n        string phone; //Phone number of the distributor\n        string role; //Role of the distributor\n    }\n\n    //To store all the distributors on the blockchain\n    mapping(uint256 => distributor) public DIS;\n\n    //To store information about retailer\n    struct retailer {\n        address addr;\n        uint256 id; //retailer id\n        string name; //Name of the retailer\n        string place; //Place the retailer is based in\n        string phone; //Phone number of the retailer\n        string role; //Role of the retailer\n    }\n\n    //To store all the retailers on the blockchain\n    mapping(uint256 => retailer) public RET;\n\n    struct consumer {\n        uint256 id; // unique consumer id\n        string name; // Name of the consumer\n        string phone; // Phone number of the consumer\n        uint256 medicineID; // ID of the medicine bought by the consumer\n        address retailerAddress; // Address of the retailer who sold the medicine\n    }\n\n    // Mapping to store consumer data with the unique ID\n    mapping(uint256 => consumer) public Consumers;\n\n    // Counter for unique consumer ID\n    uint256 public consumerCtr = 0;\n\n    //To add raw material suppliers. Only contract owner can add a new raw material supplier\n    function addRMS(\n        address _address,\n        string memory _name,\n        string memory _place,\n        string memory _phone,\n        string memory _role\n    ) public onlyByOwner {\n        rmsCtr++;\n        RMS[rmsCtr] = rawMaterialSupplier(\n            _address,\n            rmsCtr,\n            _name,\n            _place,\n            _phone,\n            _role\n        );\n    }\n\n    //To add manufacturer. Only contract owner can add a new manufacturer\n    function addManufacturer(\n        address _address,\n        string memory _name,\n        string memory _place,\n        string memory _phone,\n        string memory _role\n    ) public onlyByOwner {\n        manCtr++;\n        MAN[manCtr] = manufacturer(\n            _address,\n            manCtr,\n            _name,\n            _place,\n            _phone,\n            _role\n        );\n    }\n\n    //To add distributor. Only contract owner can add a new distributor\n    function addDistributor(\n        address _address,\n        string memory _name,\n        string memory _place,\n        string memory _phone,\n        string memory _role\n    ) public onlyByOwner {\n        disCtr++;\n        DIS[disCtr] = distributor(\n            _address,\n            disCtr,\n            _name,\n            _place,\n            _phone,\n            _role\n        );\n    }\n\n    //To add retailer. Only contract owner can add a new retailer\n    function addRetailer(\n        address _address,\n        string memory _name,\n        string memory _place,\n        string memory _phone,\n        string memory _role\n    ) public onlyByOwner {\n        retCtr++;\n        RET[retCtr] = retailer(_address, retCtr, _name, _place, _phone, _role);\n    }\n\n    //To supply raw materials from RMS supplier to the manufacturer\n    function RMSsupply(uint256 _medicineID) public {\n        require(_medicineID > 0 && _medicineID <= medicineCtr);\n        uint256 _id = findRMS(msg.sender);\n        require(_id > 0);\n        require(MedicineStock[_medicineID].stage == STAGE.Init);\n        MedicineStock[_medicineID].RMSid = _id;\n        MedicineStock[_medicineID].stage = STAGE.RawMaterialSupply;\n    }\n\n    //To check if RMS is available in the blockchain\n    function findRMS(address _address) private view returns (uint256) {\n        require(rmsCtr > 0);\n        for (uint256 i = 1; i <= rmsCtr; i++) {\n            if (RMS[i].addr == _address) return RMS[i].id;\n        }\n        return 0;\n    }\n\n    //To manufacture medicine\n    function Manufacturing(uint256 _medicineID) public {\n        require(_medicineID > 0 && _medicineID <= medicineCtr);\n        uint256 _id = findMAN(msg.sender);\n        require(_id > 0);\n        require(MedicineStock[_medicineID].stage == STAGE.RawMaterialSupply);\n        MedicineStock[_medicineID].MANid = _id;\n        MedicineStock[_medicineID].stage = STAGE.Manufacture;\n    }\n\n    //To check if Manufacturer is available in the blockchain\n    function findMAN(address _address) private view returns (uint256) {\n        require(manCtr > 0);\n        for (uint256 i = 1; i <= manCtr; i++) {\n            if (MAN[i].addr == _address) return MAN[i].id;\n        }\n        return 0;\n    }\n\n    //To supply medicines from Manufacturer to distributor\n    function Distribute(uint256 _medicineID) public {\n        require(_medicineID > 0 && _medicineID <= medicineCtr);\n        uint256 _id = findDIS(msg.sender);\n        require(_id > 0);\n        require(MedicineStock[_medicineID].stage == STAGE.Manufacture);\n        MedicineStock[_medicineID].DISid = _id;\n        MedicineStock[_medicineID].stage = STAGE.Distribution;\n    }\n\n    //To check if distributor is available in the blockchain\n    function findDIS(address _address) private view returns (uint256) {\n        require(disCtr > 0);\n        for (uint256 i = 1; i <= disCtr; i++) {\n            if (DIS[i].addr == _address) return DIS[i].id;\n        }\n        return 0;\n    }\n\n    //To supply medicines from distributor to retailer\n    function Retail(uint256 _medicineID) public {\n        require(_medicineID > 0 && _medicineID <= medicineCtr);\n        uint256 _id = findRET(msg.sender);\n        require(_id > 0);\n        require(MedicineStock[_medicineID].stage == STAGE.Distribution);\n        MedicineStock[_medicineID].RETid = _id;\n        MedicineStock[_medicineID].stage = STAGE.Retail;\n    }\n\n    //To check if retailer is available in the blockchain\n    function findRET(address _address) private view returns (uint256) {\n        require(retCtr > 0);\n        for (uint256 i = 1; i <= retCtr; i++) {\n            if (RET[i].addr == _address) return RET[i].id;\n        }\n        return 0;\n    }\n\n    //To sell medicines from retailer to consumer\n    // function sold(uint256 _medicineID) public {\n    //     require(_medicineID > 0 && _medicineID <= medicineCtr);\n    //     uint256 _id = findRET(msg.sender);\n    //     require(_id > 0);\n    //     require(_id == MedicineStock[_medicineID].RETid); //Only correct retailer can mark medicine as sold\n    //     require(MedicineStock[_medicineID].stage == STAGE.Retail);\n    //     MedicineStock[_medicineID].stage = STAGE.sold;\n    // }\n\n    function sold(\n        uint256 _medicineID,\n        string memory _consumerName,\n        string memory _consumerPhone\n    ) public {\n        require(_medicineID > 0 && _medicineID <= medicineCtr);\n        uint256 _id = findRET(msg.sender);\n        require(_id > 0);\n        require(_id == MedicineStock[_medicineID].RETid); // Only correct retailer can mark medicine as sold\n        require(MedicineStock[_medicineID].stage == STAGE.Retail);\n\n        // Increment consumer counter and create a new consumer entry\n        consumerCtr++;\n        Consumers[consumerCtr] = consumer(\n            consumerCtr,\n            _consumerName,\n            _consumerPhone,\n            _medicineID,\n            msg.sender\n        );\n\n        // Update medicine stage to sold\n        MedicineStock[_medicineID].stage = STAGE.sold;\n    }\n\n    function getConsumer(\n        uint256 _consumerID\n    )\n        public\n        view\n        returns (\n            string memory consumerName,\n            string memory consumerPhone,\n            uint256 medicineID,\n            address retailerAddress\n        )\n    {\n        require(_consumerID > 0 && _consumerID <= consumerCtr);\n\n        consumer storage selectedConsumer = Consumers[_consumerID];\n\n        return (\n            selectedConsumer.name,\n            selectedConsumer.phone,\n            selectedConsumer.medicineID,\n            selectedConsumer.retailerAddress\n        );\n    }\n\n    function getConsumersByRetailer(\n        address _retailerAddress\n    ) public view returns (uint256[] memory consumerIDs) {\n        uint256 count = 0;\n\n        for (uint256 i = 1; i <= consumerCtr; i++) {\n            if (Consumers[i].retailerAddress == _retailerAddress) {\n                count++;\n            }\n        }\n\n        consumerIDs = new uint256[](count);\n\n        count = 0;\n        for (uint256 i = 1; i <= consumerCtr; i++) {\n            if (Consumers[i].retailerAddress == _retailerAddress) {\n                consumerIDs[count] = i;\n                count++;\n            }\n        }\n\n        return consumerIDs;\n    }\n\n    // To add new medicines to the stock\n    function addMedicine(\n        string memory _name,\n        string memory _description\n    ) public onlyByOwner {\n        require((rmsCtr > 0) && (manCtr > 0) && (disCtr > 0) && (retCtr > 0));\n        medicineCtr++;\n        MedicineStock[medicineCtr] = medicine(\n            medicineCtr,\n            _name,\n            _description,\n            0,\n            0,\n            0,\n            0,\n            STAGE.Init\n        );\n    }\n\n    function findUserByAddress(\n        address _userAddress\n    )\n        public\n        view\n        returns (string memory, string memory, string memory, string memory)\n    {\n        uint256 rawSupplierID = findUserAddressInRole(\n            _userAddress,\n            \"rawsupplier\"\n        );\n        if (rawSupplierID > 0) {\n            return (\n                RMS[rawSupplierID].name,\n                RMS[rawSupplierID].place,\n                RMS[rawSupplierID].phone,\n                RMS[rawSupplierID].role\n            );\n        }\n\n        uint256 retailerID = findUserAddressInRole(_userAddress, \"retailer\");\n        if (retailerID > 0) {\n            return (\n                RET[retailerID].name,\n                RET[retailerID].place,\n                RET[retailerID].phone,\n                RET[retailerID].role\n            );\n        }\n\n        uint256 distributorID = findUserAddressInRole(\n            _userAddress,\n            \"distributor\"\n        );\n        if (distributorID > 0) {\n            return (\n                DIS[distributorID].name,\n                DIS[distributorID].place,\n                DIS[distributorID].phone,\n                DIS[distributorID].role\n            );\n        }\n\n        uint256 manufacturerID = findUserAddressInRole(\n            _userAddress,\n            \"manufacturer\"\n        );\n        if (manufacturerID > 0) {\n            return (\n                MAN[manufacturerID].name,\n                MAN[manufacturerID].place,\n                MAN[manufacturerID].phone,\n                MAN[manufacturerID].role\n            );\n        }\n\n        // Add similar checks for other roles\n\n        // Return empty strings if the address doesn't match any role\n        return (\"\", \"\", \"\", \"\");\n    }\n\n    // Internal function to find a user's ID in a specific role by address\n    function findUserAddressInRole(\n        address _userAddress,\n        string memory _role\n    ) internal view returns (uint256) {\n        if (\n            keccak256(abi.encodePacked(_role)) ==\n            keccak256(abi.encodePacked(\"retailer\"))\n        ) {\n            for (uint256 i = 1; i <= retCtr; i++) {\n                if (RET[i].addr == _userAddress) {\n                    return i;\n                }\n            }\n        }\n\n        if (\n            keccak256(abi.encodePacked(_role)) ==\n            keccak256(abi.encodePacked(\"rawsupplier\"))\n        ) {\n            for (uint256 i = 1; i <= rmsCtr; i++) {\n                if (RMS[i].addr == _userAddress) {\n                    return i;\n                }\n            }\n        }\n\n        if (\n            keccak256(abi.encodePacked(_role)) ==\n            keccak256(abi.encodePacked(\"distributor\"))\n        ) {\n            for (uint256 i = 1; i <= disCtr; i++) {\n                if (DIS[i].addr == _userAddress) {\n                    return i;\n                }\n            }\n        }\n\n        if (\n            keccak256(abi.encodePacked(_role)) ==\n            keccak256(abi.encodePacked(\"manufacturer\"))\n        ) {\n            for (uint256 i = 1; i <= manCtr; i++) {\n                if (MAN[i].addr == _userAddress) {\n                    return i;\n                }\n            }\n        }\n\n        // Add similar checks for other roles\n\n        // Return 0 if the address doesn't match any role\n        return 0;\n    }\n}\n",
  "sourcePath": "C:\\Users\\maruf\\OneDrive\\Desktop\\supply\\contracts\\SupplyChain.sol",
  "compiler": {
    "name": "solc",
    "version": "0.5.16+commit.9c3226ce.Emscripten.clang"
  },
  "schemaVersion": "3.4.16",
  "updatedAt": "2023-11-26T11:55:06.440Z",
  "networkType": "ethereum",
  "devdoc": {
    "methods": {}
  },
  "userdoc": {
    "methods": {}
  }
}